{
  "_format": "hh-sol-artifact-1",
  "contractName": "AIYieldAggregator",
  "sourceName": "contracts/AIYieldAggregator.sol",
  "abi": [
    {
      "inputs": [],
      "stateMutability": "nonpayable",
      "type": "constructor"
    },
    {
      "anonymous": false,
      "inputs": [
        {
          "indexed": true,
          "internalType": "address",
          "name": "user",
          "type": "address"
        },
        {
          "indexed": false,
          "internalType": "uint256",
          "name": "amount",
          "type": "uint256"
        },
        {
          "indexed": false,
          "internalType": "uint256",
          "name": "timestamp",
          "type": "uint256"
        }
      ],
      "name": "Deposit",
      "type": "event"
    },
    {
      "anonymous": false,
      "inputs": [
        {
          "indexed": true,
          "internalType": "address",
          "name": "owner",
          "type": "address"
        },
        {
          "indexed": false,
          "internalType": "uint256",
          "name": "amount",
          "type": "uint256"
        }
      ],
      "name": "FeeWithdrawn",
      "type": "event"
    },
    {
      "anonymous": false,
      "inputs": [
        {
          "indexed": true,
          "internalType": "address",
          "name": "user",
          "type": "address"
        },
        {
          "indexed": false,
          "internalType": "uint256",
          "name": "amount",
          "type": "uint256"
        },
        {
          "indexed": false,
          "internalType": "uint256",
          "name": "timestamp",
          "type": "uint256"
        }
      ],
      "name": "FeesCollected",
      "type": "event"
    },
    {
      "anonymous": false,
      "inputs": [
        {
          "indexed": true,
          "internalType": "address",
          "name": "previousOwner",
          "type": "address"
        },
        {
          "indexed": true,
          "internalType": "address",
          "name": "newOwner",
          "type": "address"
        }
      ],
      "name": "OwnershipTransferred",
      "type": "event"
    },
    {
      "anonymous": false,
      "inputs": [
        {
          "indexed": true,
          "internalType": "address",
          "name": "protocol",
          "type": "address"
        },
        {
          "indexed": false,
          "internalType": "uint256",
          "name": "percentage",
          "type": "uint256"
        },
        {
          "indexed": false,
          "internalType": "uint256",
          "name": "timestamp",
          "type": "uint256"
        }
      ],
      "name": "ProtocolAllocationUpdated",
      "type": "event"
    },
    {
      "anonymous": false,
      "inputs": [
        {
          "indexed": true,
          "internalType": "address",
          "name": "user",
          "type": "address"
        },
        {
          "indexed": false,
          "internalType": "uint256",
          "name": "amount",
          "type": "uint256"
        },
        {
          "indexed": false,
          "internalType": "uint256",
          "name": "fees",
          "type": "uint256"
        },
        {
          "indexed": false,
          "internalType": "uint256",
          "name": "timestamp",
          "type": "uint256"
        }
      ],
      "name": "Withdrawal",
      "type": "event"
    },
    {
      "anonymous": false,
      "inputs": [
        {
          "indexed": true,
          "internalType": "address",
          "name": "protocol",
          "type": "address"
        },
        {
          "indexed": false,
          "internalType": "uint256",
          "name": "amount",
          "type": "uint256"
        },
        {
          "indexed": false,
          "internalType": "uint256",
          "name": "timestamp",
          "type": "uint256"
        }
      ],
      "name": "YieldGenerated",
      "type": "event"
    },
    {
      "inputs": [],
      "name": "AAVE_USDC",
      "outputs": [
        {
          "internalType": "address",
          "name": "",
          "type": "address"
        }
      ],
      "stateMutability": "view",
      "type": "function"
    },
    {
      "inputs": [],
      "name": "COMPOUND_USDC",
      "outputs": [
        {
          "internalType": "address",
          "name": "",
          "type": "address"
        }
      ],
      "stateMutability": "view",
      "type": "function"
    },
    {
      "inputs": [],
      "name": "MANAGEMENT_FEE_RATE",
      "outputs": [
        {
          "internalType": "uint256",
          "name": "",
          "type": "uint256"
        }
      ],
      "stateMutability": "view",
      "type": "function"
    },
    {
      "inputs": [],
      "name": "PERFORMANCE_FEE_RATE",
      "outputs": [
        {
          "internalType": "uint256",
          "name": "",
          "type": "uint256"
        }
      ],
      "stateMutability": "view",
      "type": "function"
    },
    {
      "inputs": [],
      "name": "USDC",
      "outputs": [
        {
          "internalType": "address",
          "name": "",
          "type": "address"
        }
      ],
      "stateMutability": "view",
      "type": "function"
    },
    {
      "inputs": [
        {
          "internalType": "uint256",
          "name": "amount",
          "type": "uint256"
        }
      ],
      "name": "deposit",
      "outputs": [],
      "stateMutability": "nonpayable",
      "type": "function"
    },
    {
      "inputs": [],
      "name": "emergencyPause",
      "outputs": [],
      "stateMutability": "nonpayable",
      "type": "function"
    },
    {
      "inputs": [],
      "name": "getProtocolAllocations",
      "outputs": [
        {
          "components": [
            {
              "internalType": "address",
              "name": "protocol",
              "type": "address"
            },
            {
              "internalType": "uint256",
              "name": "percentage",
              "type": "uint256"
            },
            {
              "internalType": "uint256",
              "name": "totalDeposited",
              "type": "uint256"
            },
            {
              "internalType": "uint256",
              "name": "totalYield",
              "type": "uint256"
            }
          ],
          "internalType": "struct AIYieldAggregator.ProtocolAllocation[]",
          "name": "",
          "type": "tuple[]"
        }
      ],
      "stateMutability": "view",
      "type": "function"
    },
    {
      "inputs": [],
      "name": "getStats",
      "outputs": [
        {
          "internalType": "uint256",
          "name": "_totalDeposits",
          "type": "uint256"
        },
        {
          "internalType": "uint256",
          "name": "_totalFeesCollected",
          "type": "uint256"
        },
        {
          "internalType": "uint256",
          "name": "_totalYieldGenerated",
          "type": "uint256"
        },
        {
          "internalType": "uint256",
          "name": "_contractBalance",
          "type": "uint256"
        }
      ],
      "stateMutability": "view",
      "type": "function"
    },
    {
      "inputs": [
        {
          "internalType": "address",
          "name": "user",
          "type": "address"
        }
      ],
      "name": "getUserPosition",
      "outputs": [
        {
          "internalType": "uint256",
          "name": "totalDeposited",
          "type": "uint256"
        },
        {
          "internalType": "uint256",
          "name": "totalWithdrawn",
          "type": "uint256"
        },
        {
          "internalType": "uint256",
          "name": "currentYield",
          "type": "uint256"
        },
        {
          "internalType": "uint256",
          "name": "totalFees",
          "type": "uint256"
        },
        {
          "internalType": "bool",
          "name": "isActive",
          "type": "bool"
        }
      ],
      "stateMutability": "view",
      "type": "function"
    },
    {
      "inputs": [],
      "name": "owner",
      "outputs": [
        {
          "internalType": "address",
          "name": "",
          "type": "address"
        }
      ],
      "stateMutability": "view",
      "type": "function"
    },
    {
      "inputs": [
        {
          "internalType": "uint256",
          "name": "",
          "type": "uint256"
        }
      ],
      "name": "protocolAllocations",
      "outputs": [
        {
          "internalType": "address",
          "name": "protocol",
          "type": "address"
        },
        {
          "internalType": "uint256",
          "name": "percentage",
          "type": "uint256"
        },
        {
          "internalType": "uint256",
          "name": "totalDeposited",
          "type": "uint256"
        },
        {
          "internalType": "uint256",
          "name": "totalYield",
          "type": "uint256"
        }
      ],
      "stateMutability": "view",
      "type": "function"
    },
    {
      "inputs": [
        {
          "internalType": "address",
          "name": "",
          "type": "address"
        }
      ],
      "name": "protocolBalances",
      "outputs": [
        {
          "internalType": "uint256",
          "name": "",
          "type": "uint256"
        }
      ],
      "stateMutability": "view",
      "type": "function"
    },
    {
      "inputs": [],
      "name": "renounceOwnership",
      "outputs": [],
      "stateMutability": "nonpayable",
      "type": "function"
    },
    {
      "inputs": [],
      "name": "totalDeposits",
      "outputs": [
        {
          "internalType": "uint256",
          "name": "",
          "type": "uint256"
        }
      ],
      "stateMutability": "view",
      "type": "function"
    },
    {
      "inputs": [],
      "name": "totalFeesCollected",
      "outputs": [
        {
          "internalType": "uint256",
          "name": "",
          "type": "uint256"
        }
      ],
      "stateMutability": "view",
      "type": "function"
    },
    {
      "inputs": [],
      "name": "totalYieldGenerated",
      "outputs": [
        {
          "internalType": "uint256",
          "name": "",
          "type": "uint256"
        }
      ],
      "stateMutability": "view",
      "type": "function"
    },
    {
      "inputs": [
        {
          "internalType": "address",
          "name": "newOwner",
          "type": "address"
        }
      ],
      "name": "transferOwnership",
      "outputs": [],
      "stateMutability": "nonpayable",
      "type": "function"
    },
    {
      "inputs": [
        {
          "internalType": "uint256",
          "name": "index",
          "type": "uint256"
        },
        {
          "internalType": "uint256",
          "name": "percentage",
          "type": "uint256"
        }
      ],
      "name": "updateProtocolAllocation",
      "outputs": [],
      "stateMutability": "nonpayable",
      "type": "function"
    },
    {
      "inputs": [
        {
          "internalType": "address",
          "name": "",
          "type": "address"
        }
      ],
      "name": "userPositions",
      "outputs": [
        {
          "internalType": "uint256",
          "name": "totalDeposited",
          "type": "uint256"
        },
        {
          "internalType": "uint256",
          "name": "totalWithdrawn",
          "type": "uint256"
        },
        {
          "internalType": "uint256",
          "name": "lastDepositTime",
          "type": "uint256"
        },
        {
          "internalType": "uint256",
          "name": "accumulatedFees",
          "type": "uint256"
        },
        {
          "internalType": "bool",
          "name": "isActive",
          "type": "bool"
        }
      ],
      "stateMutability": "view",
      "type": "function"
    },
    {
      "inputs": [
        {
          "internalType": "uint256",
          "name": "amount",
          "type": "uint256"
        }
      ],
      "name": "withdraw",
      "outputs": [],
      "stateMutability": "nonpayable",
      "type": "function"
    },
    {
      "inputs": [],
      "name": "withdrawFees",
      "outputs": [],
      "stateMutability": "nonpayable",
      "type": "function"
    }
  ],
  "bytecode": "0x608060405234801561001057600080fd5b50600160005561001f3361019e565b60408051608080820183527394a9d9ac8a22534e3faca9f4e7f2e2cf85d5e4c88252610e4c602080840191825260008486018181526060808701838152600480546001808201835582875299517f8a35acfbc15ff81a39ae7d344fd709f28e8600b4aa8c65c6b64bfe7fe36bd19b91830282810180546001600160a01b03199081166001600160a01b039485161790915599517f8a35acfbc15ff81a39ae7d344fd709f28e8600b4aa8c65c6b64bfe7fe36bd19c8083019190915596517f8a35acfbc15ff81a39ae7d344fd709f28e8600b4aa8c65c6b64bfe7fe36bd19d8083019190915594517f8a35acfbc15ff81a39ae7d344fd709f28e8600b4aa8c65c6b64bfe7fe36bd19e918201558c519a8b018d527316da4541ad1807f4443d92d26044c1147406eb808b52610d66988b019889529b8a01878152948a0187815283549b8c018455968390529851999091029081018054909716989097169790971790945591519184019190915590519282019290925590519101556101f0565b600180546001600160a01b038381166001600160a01b0319831681179093556040519116919082907f8be0079c531659141344cd1fd0a4f28419497f9722a3daafe3b4186f6b6457e090600090a35050565b61135c806101ff6000396000f3fe608060405234801561001057600080fd5b50600436106101425760003560e01c80638cda1e32116100b8578063c59d48471161007c578063c59d484714610301578063cf4fab1f14610329578063d35f16d814610331578063d7c2a8871461034c578063dd8bb57c14610354578063f2fde38b1461036957600080fd5b80638cda1e321461028f5780638da5cb5b146102af578063986e311a146102c0578063a96c6599146102db578063b6b55f25146102ee57600080fd5b806360c6d8ae1161010a57806360c6d8ae146101eb578063613cf42014610202578063715018a6146102425780637d8820971461024a57806389a30271146102535780638c8250561461028657600080fd5b806323882826146101475780632e1a7d4d14610189578063476343ee1461019e57806351858e27146101a65780635b7c2dad146101ae575b600080fd5b61015a6101553660046110f6565b61037c565b604080516001600160a01b03909516855260208501939093529183015260608201526080015b60405180910390f35b61019c6101973660046110f6565b6103c0565b005b61019c6105dc565b61019c6106b1565b6101c16101bc36600461110f565b6106bb565b6040805195865260208601949094529284019190915260608301521515608082015260a001610180565b6101f460065481565b604051908152602001610180565b6101c161021036600461110f565b600260208190526000918252604090912080546001820154928201546003830154600490930154919392909160ff1685565b61019c610740565b6101f460055481565b61026e731c7d4b196cb0c7b01d743fbc6116a902379c723881565b6040516001600160a01b039091168152602001610180565b6101f460075481565b6101f461029d36600461110f565b60036020526000908152604090205481565b6001546001600160a01b031661026e565b61026e7394a9d9ac8a22534e3faca9f4e7f2e2cf85d5e4c881565b61019c6102e936600461113f565b610752565b61019c6102fc3660046110f6565b61088e565b6103096109ac565b604080519485526020850193909352918301526060820152608001610180565b6101f4603281565b61026e7316da4541ad1807f4443d92d26044c1147406eb8081565b6101f4600a81565b61035c610a3f565b6040516101809190611161565b61019c61037736600461110f565b610ac9565b6004818154811061038c57600080fd5b600091825260209091206004909102018054600182015460028301546003909301546001600160a01b039092169350919084565b6103c8610b3f565b336000908152600260205260409020600481015460ff166104255760405162461bcd60e51b815260206004820152601260248201527127379030b1ba34bb32903837b9b4ba34b7b760711b60448201526064015b60405180910390fd5b805482111561046d5760405162461bcd60e51b8152602060048201526014602482015273496e73756666696369656e742062616c616e636560601b604482015260640161041c565b600061047833610b98565b9050600081836000015461048c91906111e4565b9050600061271061049e6032856111fd565b6104a89190611214565b905060006104b68285611236565b9050858560010160008282546104cc91906111e4565b92505081905550818560030160008282546104e791906111e4565b92505081905550816006600082825461050091906111e4565b92505081905550836007600082825461051991906111e4565b909155506105249050565b61054e3361053283896111e4565b731c7d4b196cb0c7b01d743fbc6116a902379c72389190610c5a565b60408051878152602081018490524281830152905133917f650fdf669e93aa6c8ff3defe2da9c12b64f1548e5e1e54e803f4c1beb6466c8e919081900360600190a26040805183815242602082015233917f2e4fb6077d4acf86e12bb7411fb82b2b3eaa6a49787f4b1e17b423e7ea841169910160405180910390a250505050506105d96001600055565b50565b6105e4610cc2565b6006548061062a5760405162461bcd60e51b81526020600482015260136024820152724e6f206665657320746f20776974686472617760681b604482015260640161041c565b60006006556106606106446001546001600160a01b031690565b731c7d4b196cb0c7b01d743fbc6116a902379c72389083610c5a565b6001546001600160a01b03166001600160a01b03167f78473f3f373f7673597f4f0fa5873cb4d375fea6d4339ad6b56dbd411513cb3f826040516106a691815260200190565b60405180910390a250565b6106b9610cc2565b565b6001600160a01b0381166000908152600260208181526040808420815160a081018352815480825260018301549482018590529482015492810192909252600381015460608301526004015460ff16151560808201528392839283928392909161072489610b98565b6060840151608090940151929a91995097509195509350915050565b610748610cc2565b6106b96000610d1c565b61075a610cc2565b60045482106107a45760405162461bcd60e51b8152602060048201526016602482015275092dcecc2d8d2c840e0e4dee8dec6ded840d2dcc8caf60531b604482015260640161041c565b6127108111156107f65760405162461bcd60e51b815260206004820152601d60248201527f50657263656e746167652063616e6e6f74206578636565642031303025000000604482015260640161041c565b806004838154811061080a5761080a611249565b9060005260206000209060040201600101819055506004828154811061083257610832611249565b6000918252602091829020600490910201546040805184815242938101939093526001600160a01b03909116917f3734dbe25ba80b349334245fc9e5b19d7473e2d0e19a2dc5d6f83fb6fdb5b772910160405180910390a25050565b610896610b3f565b600081116108e65760405162461bcd60e51b815260206004820152601d60248201527f416d6f756e74206d7573742062652067726561746572207468616e2030000000604482015260640161041c565b610906731c7d4b196cb0c7b01d743fbc6116a902379c7238333084610d6e565b3360009081526002602052604081208054909183918391906109299084906111e4565b909155505042600282015560048101805460ff19166001179055600580548391906000906109589084906111e4565b90915550610967905082610dac565b6040805183815242602082015233917f90890809c654f11d6e72a28fa60149770a0d11ec6c92319d6ceb2bb0a4ea1a15910160405180910390a2506105d96001600055565b6005546006546007546040516370a0823160e01b8152306004820152600093849384938493731c7d4b196cb0c7b01d743fbc6116a902379c7238906370a0823190602401602060405180830381865afa158015610a0d573d6000803e3d6000fd5b505050506040513d601f19601f82011682018060405250810190610a31919061125f565b935093509350935090919293565b60606004805480602002602001604051908101604052809291908181526020016000905b82821015610ac0576000848152602090819020604080516080810182526004860290920180546001600160a01b03168352600180820154848601526002820154928401929092526003015460608301529083529092019101610a63565b50505050905090565b610ad1610cc2565b6001600160a01b038116610b365760405162461bcd60e51b815260206004820152602660248201527f4f776e61626c653a206e6577206f776e657220697320746865207a65726f206160448201526564647265737360d01b606482015260840161041c565b6105d981610d1c565b600260005403610b915760405162461bcd60e51b815260206004820152601f60248201527f5265656e7472616e637947756172643a207265656e7472616e742063616c6c00604482015260640161041c565b6002600055565b6001600160a01b0381166000908152600260208181526040808420815160a08101835281548082526001830154948201949094529381015491840191909152600381015460608401526004015460ff16151560808301528203610bfe5750600092915050565b6000816040015142610c109190611236565b90506000612710836000015161039a610c2991906111fd565b610c339190611214565b905060006301e13380610c4684846111fd565b610c509190611214565b9695505050505050565b6040516001600160a01b038316602482015260448101829052610cbd90849063a9059cbb60e01b906064015b60408051601f198184030181529190526020810180516001600160e01b03166001600160e01b031990931692909217909152610e91565b505050565b6001546001600160a01b031633146106b95760405162461bcd60e51b815260206004820181905260248201527f4f776e61626c653a2063616c6c6572206973206e6f7420746865206f776e6572604482015260640161041c565b600180546001600160a01b038381166001600160a01b0319831681179093556040519116919082907f8be0079c531659141344cd1fd0a4f28419497f9722a3daafe3b4186f6b6457e090600090a35050565b6040516001600160a01b0380851660248301528316604482015260648101829052610da69085906323b872dd60e01b90608401610c86565b50505050565b60005b600454811015610e8d57600060048281548110610dce57610dce611249565b906000526020600020906004020190506000612710826001015485610df391906111fd565b610dfd9190611214565b90508015610e78578154610e3090731c7d4b196cb0c7b01d743fbc6116a902379c7238906001600160a01b031683610c5a565b80826002016000828254610e4491906111e4565b909155505081546001600160a01b031660009081526003602052604081208054839290610e729084906111e4565b90915550505b50508080610e8590611278565b915050610daf565b5050565b6000610ee6826040518060400160405280602081526020017f5361666545524332303a206c6f772d6c6576656c2063616c6c206661696c6564815250856001600160a01b0316610f669092919063ffffffff16565b9050805160001480610f07575080806020019051810190610f079190611291565b610cbd5760405162461bcd60e51b815260206004820152602a60248201527f5361666545524332303a204552433230206f7065726174696f6e20646964206e6044820152691bdd081cdd58d8d9595960b21b606482015260840161041c565b6060610f758484600085610f7d565b949350505050565b606082471015610fde5760405162461bcd60e51b815260206004820152602660248201527f416464726573733a20696e73756666696369656e742062616c616e636520666f6044820152651c8818d85b1b60d21b606482015260840161041c565b600080866001600160a01b03168587604051610ffa91906112d7565b60006040518083038185875af1925050503d8060008114611037576040519150601f19603f3d011682016040523d82523d6000602084013e61103c565b606091505b509150915061104d87838387611058565b979650505050505050565b606083156110c75782516000036110c0576001600160a01b0385163b6110c05760405162461bcd60e51b815260206004820152601d60248201527f416464726573733a2063616c6c20746f206e6f6e2d636f6e7472616374000000604482015260640161041c565b5081610f75565b610f7583838151156110dc5781518083602001fd5b8060405162461bcd60e51b815260040161041c91906112f3565b60006020828403121561110857600080fd5b5035919050565b60006020828403121561112157600080fd5b81356001600160a01b038116811461113857600080fd5b9392505050565b6000806040838503121561115257600080fd5b50508035926020909101359150565b602080825282518282018190526000919060409081850190868401855b828110156111c157815180516001600160a01b0316855286810151878601528581015186860152606090810151908501526080909301929085019060010161117e565b5091979650505050505050565b634e487b7160e01b600052601160045260246000fd5b808201808211156111f7576111f76111ce565b92915050565b80820281158282048414176111f7576111f76111ce565b60008261123157634e487b7160e01b600052601260045260246000fd5b500490565b818103818111156111f7576111f76111ce565b634e487b7160e01b600052603260045260246000fd5b60006020828403121561127157600080fd5b5051919050565b60006001820161128a5761128a6111ce565b5060010190565b6000602082840312156112a357600080fd5b8151801515811461113857600080fd5b60005b838110156112ce5781810151838201526020016112b6565b50506000910152565b600082516112e98184602087016112b3565b9190910192915050565b60208152600082518060208401526113128160408501602087016112b3565b601f01601f1916919091016040019291505056fea2646970667358221220a3b7080f087917c95110e785dcc45c24107f01c8623dd44cd27e1fac3223313a64736f6c63430008130033",
  "linkReferences": {},
  "deployedLinkReferences": {}
}