{
  "_format": "hh-sol-artifact-1",
  "contractName": "AIYieldAggregatorProduction",
  "sourceName": "contracts/AIYieldAggregatorProduction.sol",
  "abi": [
    {
      "inputs": [
        {
          "internalType": "address",
          "name": "_usdc",
          "type": "address"
        }
      ],
      "stateMutability": "nonpayable",
      "type": "constructor"
    },
    {
      "anonymous": false,
      "inputs": [
        {
          "indexed": true,
          "internalType": "address",
          "name": "user",
          "type": "address"
        },
        {
          "indexed": false,
          "internalType": "uint256",
          "name": "amount",
          "type": "uint256"
        },
        {
          "indexed": false,
          "internalType": "uint256",
          "name": "timestamp",
          "type": "uint256"
        }
      ],
      "name": "Deposit",
      "type": "event"
    },
    {
      "anonymous": false,
      "inputs": [
        {
          "indexed": true,
          "internalType": "address",
          "name": "owner",
          "type": "address"
        },
        {
          "indexed": false,
          "internalType": "uint256",
          "name": "amount",
          "type": "uint256"
        }
      ],
      "name": "FeeWithdrawn",
      "type": "event"
    },
    {
      "anonymous": false,
      "inputs": [
        {
          "indexed": true,
          "internalType": "address",
          "name": "user",
          "type": "address"
        },
        {
          "indexed": false,
          "internalType": "uint256",
          "name": "amount",
          "type": "uint256"
        },
        {
          "indexed": false,
          "internalType": "uint256",
          "name": "timestamp",
          "type": "uint256"
        }
      ],
      "name": "FeesCollected",
      "type": "event"
    },
    {
      "anonymous": false,
      "inputs": [
        {
          "indexed": true,
          "internalType": "address",
          "name": "previousOwner",
          "type": "address"
        },
        {
          "indexed": true,
          "internalType": "address",
          "name": "newOwner",
          "type": "address"
        }
      ],
      "name": "OwnershipTransferred",
      "type": "event"
    },
    {
      "anonymous": false,
      "inputs": [
        {
          "indexed": true,
          "internalType": "address",
          "name": "user",
          "type": "address"
        },
        {
          "indexed": false,
          "internalType": "uint256",
          "name": "amount",
          "type": "uint256"
        },
        {
          "indexed": false,
          "internalType": "uint256",
          "name": "fees",
          "type": "uint256"
        },
        {
          "indexed": false,
          "internalType": "uint256",
          "name": "timestamp",
          "type": "uint256"
        }
      ],
      "name": "Withdrawal",
      "type": "event"
    },
    {
      "anonymous": false,
      "inputs": [
        {
          "indexed": true,
          "internalType": "address",
          "name": "user",
          "type": "address"
        },
        {
          "indexed": false,
          "internalType": "uint256",
          "name": "amount",
          "type": "uint256"
        },
        {
          "indexed": false,
          "internalType": "uint256",
          "name": "timestamp",
          "type": "uint256"
        }
      ],
      "name": "YieldGenerated",
      "type": "event"
    },
    {
      "anonymous": false,
      "inputs": [
        {
          "indexed": false,
          "internalType": "uint256",
          "name": "newAPY",
          "type": "uint256"
        },
        {
          "indexed": false,
          "internalType": "uint256",
          "name": "timestamp",
          "type": "uint256"
        },
        {
          "indexed": false,
          "internalType": "string",
          "name": "source",
          "type": "string"
        }
      ],
      "name": "YieldUpdated",
      "type": "event"
    },
    {
      "inputs": [],
      "name": "PERFORMANCE_FEE_RATE",
      "outputs": [
        {
          "internalType": "uint256",
          "name": "",
          "type": "uint256"
        }
      ],
      "stateMutability": "view",
      "type": "function"
    },
    {
      "inputs": [],
      "name": "USDC",
      "outputs": [
        {
          "internalType": "address",
          "name": "",
          "type": "address"
        }
      ],
      "stateMutability": "view",
      "type": "function"
    },
    {
      "inputs": [],
      "name": "YIELD_UPDATE_THRESHOLD",
      "outputs": [
        {
          "internalType": "uint256",
          "name": "",
          "type": "uint256"
        }
      ],
      "stateMutability": "view",
      "type": "function"
    },
    {
      "inputs": [
        {
          "internalType": "uint256",
          "name": "amount",
          "type": "uint256"
        }
      ],
      "name": "deposit",
      "outputs": [],
      "stateMutability": "nonpayable",
      "type": "function"
    },
    {
      "inputs": [
        {
          "internalType": "uint256",
          "name": "newAPY",
          "type": "uint256"
        }
      ],
      "name": "emergencyUpdateYield",
      "outputs": [],
      "stateMutability": "nonpayable",
      "type": "function"
    },
    {
      "inputs": [],
      "name": "getStats",
      "outputs": [
        {
          "internalType": "uint256",
          "name": "totalDeposits_",
          "type": "uint256"
        },
        {
          "internalType": "uint256",
          "name": "totalFeesCollected_",
          "type": "uint256"
        },
        {
          "internalType": "uint256",
          "name": "totalYieldGenerated_",
          "type": "uint256"
        },
        {
          "internalType": "uint256",
          "name": "contractBalance_",
          "type": "uint256"
        },
        {
          "internalType": "uint256",
          "name": "currentAPY_",
          "type": "uint256"
        },
        {
          "internalType": "uint256",
          "name": "lastUpdate_",
          "type": "uint256"
        }
      ],
      "stateMutability": "view",
      "type": "function"
    },
    {
      "inputs": [
        {
          "internalType": "address",
          "name": "user",
          "type": "address"
        }
      ],
      "name": "getUserPosition",
      "outputs": [
        {
          "internalType": "uint256",
          "name": "totalDeposited",
          "type": "uint256"
        },
        {
          "internalType": "uint256",
          "name": "totalWithdrawn",
          "type": "uint256"
        },
        {
          "internalType": "uint256",
          "name": "currentYield",
          "type": "uint256"
        },
        {
          "internalType": "uint256",
          "name": "totalFeesPaid",
          "type": "uint256"
        },
        {
          "internalType": "bool",
          "name": "isActive",
          "type": "bool"
        },
        {
          "internalType": "uint256",
          "name": "realAPY",
          "type": "uint256"
        }
      ],
      "stateMutability": "view",
      "type": "function"
    },
    {
      "inputs": [],
      "name": "lastYieldUpdate",
      "outputs": [
        {
          "internalType": "uint256",
          "name": "",
          "type": "uint256"
        }
      ],
      "stateMutability": "view",
      "type": "function"
    },
    {
      "inputs": [],
      "name": "owner",
      "outputs": [
        {
          "internalType": "address",
          "name": "",
          "type": "address"
        }
      ],
      "stateMutability": "view",
      "type": "function"
    },
    {
      "inputs": [],
      "name": "renounceOwnership",
      "outputs": [],
      "stateMutability": "nonpayable",
      "type": "function"
    },
    {
      "inputs": [],
      "name": "totalDeposits",
      "outputs": [
        {
          "internalType": "uint256",
          "name": "",
          "type": "uint256"
        }
      ],
      "stateMutability": "view",
      "type": "function"
    },
    {
      "inputs": [],
      "name": "totalFeesCollected",
      "outputs": [
        {
          "internalType": "uint256",
          "name": "",
          "type": "uint256"
        }
      ],
      "stateMutability": "view",
      "type": "function"
    },
    {
      "inputs": [
        {
          "internalType": "address",
          "name": "newOwner",
          "type": "address"
        }
      ],
      "name": "transferOwnership",
      "outputs": [],
      "stateMutability": "nonpayable",
      "type": "function"
    },
    {
      "inputs": [
        {
          "internalType": "uint256",
          "name": "newAPY",
          "type": "uint256"
        },
        {
          "internalType": "string",
          "name": "source",
          "type": "string"
        }
      ],
      "name": "updateYieldData",
      "outputs": [],
      "stateMutability": "nonpayable",
      "type": "function"
    },
    {
      "inputs": [
        {
          "internalType": "address",
          "name": "",
          "type": "address"
        }
      ],
      "name": "userPositions",
      "outputs": [
        {
          "internalType": "uint256",
          "name": "totalDeposited",
          "type": "uint256"
        },
        {
          "internalType": "uint256",
          "name": "totalWithdrawn",
          "type": "uint256"
        },
        {
          "internalType": "uint256",
          "name": "currentYield",
          "type": "uint256"
        },
        {
          "internalType": "uint256",
          "name": "totalFeesPaid",
          "type": "uint256"
        },
        {
          "internalType": "bool",
          "name": "isActive",
          "type": "bool"
        },
        {
          "internalType": "uint256",
          "name": "lastYieldUpdate",
          "type": "uint256"
        }
      ],
      "stateMutability": "view",
      "type": "function"
    },
    {
      "inputs": [
        {
          "internalType": "uint256",
          "name": "amount",
          "type": "uint256"
        }
      ],
      "name": "withdraw",
      "outputs": [],
      "stateMutability": "nonpayable",
      "type": "function"
    },
    {
      "inputs": [],
      "name": "withdrawFees",
      "outputs": [],
      "stateMutability": "nonpayable",
      "type": "function"
    },
    {
      "inputs": [],
      "name": "yieldData",
      "outputs": [
        {
          "internalType": "uint256",
          "name": "currentAPY",
          "type": "uint256"
        },
        {
          "internalType": "uint256",
          "name": "lastUpdate",
          "type": "uint256"
        },
        {
          "internalType": "uint256",
          "name": "totalYieldGenerated",
          "type": "uint256"
        }
      ],
      "stateMutability": "view",
      "type": "function"
    }
  ],
  "bytecode": "0x60a060405234801561001057600080fd5b5060405161151438038061151483398101604081905261002f916100d5565b61003833610085565b6001805561004533610085565b6001600160a01b03166080526040805160608101825261039a80825242602083018190526000929093018290526003556004829055600555600855610105565b600080546001600160a01b038381166001600160a01b0319831681178455604051919092169283917f8be0079c531659141344cd1fd0a4f28419497f9722a3daafe3b4186f6b6457e09190a35050565b6000602082840312156100e757600080fd5b81516001600160a01b03811681146100fe57600080fd5b9392505050565b6080516113d16101436000396000818161024f0152818161057301528181610650015281816107a001528181610a6a0152610b6e01526113d16000f3fe608060405234801561001057600080fd5b50600436106101165760003560e01c80637d270042116100a25780638f8c8aee116100715780638f8c8aee1461029a578063b6b55f25146102a3578063c59d4847146102b6578063cf4fab1f146102eb578063f2fde38b146102f357600080fd5b80637d270042146102145780637d8820971461024157806389a302711461024a5780638da5cb5b1461028957600080fd5b806356b54ce9116100e957806356b54ce9146101665780635b7c2dad1461017957806360c6d8ae146101bb578063613cf420146101c4578063715018a61461020c57600080fd5b806325272b791461011b578063263b8895146101365780632e1a7d4d1461014b578063476343ee1461015e575b600080fd5b610123606481565b6040519081526020015b60405180910390f35b610149610144366004611170565b610306565b005b610149610159366004611170565b6103cc565b61014961072e565b610149610174366004611189565b610818565b61018c610187366004611205565b610923565b6040805196875260208701959095529385019290925260608401521515608083015260a082015260c00161012d565b61012360075481565b61018c6101d2366004611205565b60026020819052600091825260409091208054600182015492820154600383015460048401546005909401549294939192909160ff169086565b6101496109e3565b60035460045460055461022692919083565b6040805193845260208401929092529082015260600161012d565b61012360065481565b6102717f000000000000000000000000000000000000000000000000000000000000000081565b6040516001600160a01b03909116815260200161012d565b6000546001600160a01b0316610271565b61012360085481565b6101496102b1366004611170565b6109f7565b6102be610b37565b604080519687526020870195909552938501929092526060840152608083015260a082015260c00161012d565b610123603281565b610149610301366004611205565b610bf2565b61030e610c68565b60008111801561032057506113888111155b61035f5760405162461bcd60e51b815260206004820152600b60248201526a496e76616c69642041505960a81b60448201526064015b60405180910390fd5b60038190554260048190556008819055604080518381526020810192909252606082820181905260099083015268656d657267656e637960b81b6080830152517f4f7d4a3140336cdb1e205a46b20c08578e99885f5fda8963696fb372098d3a439181900360a00190a150565b6103d4610cc2565b336000908152600260205260409020600481015460ff1661042c5760405162461bcd60e51b815260206004820152601260248201527127379030b1ba34bb32903837b9b4ba34b7b760711b6044820152606401610356565b6000821161048d5760405162461bcd60e51b815260206004820152602860248201527f5769746864726177616c20616d6f756e74206d75737420626520677265617465604482015267072207468616e20360c41b6064820152608401610356565b61049633610d1b565b600281015481546000916104a99161124b565b9050828110156104fb5760405162461bcd60e51b815260206004820152601e60248201527f496e73756666696369656e742066756e647320746f20776974686472617700006044820152606401610356565b60028201546000811561055c57612710610516603284611264565b610520919061127b565b90508060076000828254610534919061124b565b925050819055508084600301600082825461054f919061124b565b9091555050600060028501555b6040516370a0823160e01b815230600482015285907f00000000000000000000000000000000000000000000000000000000000000006001600160a01b0316906370a0823190602401602060405180830381865afa1580156105c2573d6000803e3d6000fd5b505050506040513d601f19601f820116820180604052508101906105e6919061129d565b10156106435760405162461bcd60e51b815260206004820152602660248201527f436f6e74726163742068617320696e73756666696369656e7420555344432062604482015265616c616e636560d01b6064820152608401610356565b6106776001600160a01b037f0000000000000000000000000000000000000000000000000000000000000000163387610e15565b8484600101600082825461068b919061124b565b9091555050600184015460028501548554600092916106a99161124b565b6106b391906112b6565b116106c55760048401805460ff191690555b84600660008282546106d791906112b6565b909155505060408051868152602081018390524281830152905133917f650fdf669e93aa6c8ff3defe2da9c12b64f1548e5e1e54e803f4c1beb6466c8e919081900360600190a25050505061072b60018055565b50565b610736610c68565b6007548061077c5760405162461bcd60e51b81526020600482015260136024820152724e6f206665657320746f20776974686472617760681b6044820152606401610356565b60006007556107c76107966000546001600160a01b031690565b6001600160a01b037f0000000000000000000000000000000000000000000000000000000000000000169083610e15565b6000546001600160a01b03166001600160a01b03167f78473f3f373f7673597f4f0fa5873cb4d375fea6d4339ad6b56dbd411513cb3f8260405161080d91815260200190565b60405180910390a250565b610820610c68565b6000831161085e5760405162461bcd60e51b815260206004820152600b60248201526a496e76616c69642041505960a81b6044820152606401610356565b61138883111561089f5760405162461bcd60e51b815260206004820152600c60248201526b082a0b240e8dede40d0d2ced60a31b6044820152606401610356565b60035460008185116108ba576108b585836112b6565b6108c4565b6108c482866112b6565b90506064811061091c57600385905542600481905560088190556040517f4f7d4a3140336cdb1e205a46b20c08578e99885f5fda8963696fb372098d3a439161091391889190889088906112c9565b60405180910390a15b5050505050565b6001600160a01b038116600090815260026020526040812060058101548291829182918291829190829061095790426112b6565b9050600080836000015411801561096e5750600082115b156109a257600354835464496cebb80091849161098b9190611264565b6109959190611264565b61099f919061127b565b90505b8254600184015460028501546109b990849061124b565b6003868101546004909701549054939e929d50909b5094995060ff90941697509550919350505050565b6109eb610c68565b6109f56000610e7d565b565b6109ff610cc2565b60008111610a5d5760405162461bcd60e51b815260206004820152602560248201527f4465706f73697420616d6f756e74206d75737420626520677265617465722074604482015264068616e20360dc1b6064820152608401610356565b610a926001600160a01b037f000000000000000000000000000000000000000000000000000000000000000016333084610ecd565b33600081815260026020526040902090610aab90610d1b565b81816000016000828254610abf919061124b565b909155505060048101805460ff1916600117905542600582015560068054839190600090610aee90849061124b565b90915550506040805183815242602082015233917f90890809c654f11d6e72a28fa60149770a0d11ec6c92319d6ceb2bb0a4ea1a15910160405180910390a25061072b60018055565b6006546007546005546040516370a0823160e01b815230600482015260009384938493849384938493909290916001600160a01b037f000000000000000000000000000000000000000000000000000000000000000016906370a0823190602401602060405180830381865afa158015610bb5573d6000803e3d6000fd5b505050506040513d601f19601f82011682018060405250810190610bd9919061129d565b600354600454949b939a50919850965094509092509050565b610bfa610c68565b6001600160a01b038116610c5f5760405162461bcd60e51b815260206004820152602660248201527f4f776e61626c653a206e6577206f776e657220697320746865207a65726f206160448201526564647265737360d01b6064820152608401610356565b61072b81610e7d565b6000546001600160a01b031633146109f55760405162461bcd60e51b815260206004820181905260248201527f4f776e61626c653a2063616c6c6572206973206e6f7420746865206f776e65726044820152606401610356565b600260015403610d145760405162461bcd60e51b815260206004820152601f60248201527f5265656e7472616e637947756172643a207265656e7472616e742063616c6c006044820152606401610356565b6002600155565b6001600160a01b03811660009081526002602052604081208054909103610d40575050565b6000816005015442610d5291906112b6565b905080600003610d6157505050565b600354825460009164496cebb800918491610d7b91611264565b610d859190611264565b610d8f919061127b565b905080836002016000828254610da5919061124b565b9091555050426005808501919091558054829190600090610dc790849061124b565b9091555050604080518281524260208201526001600160a01b038616917fb183ece226d6631a5242c120ec1334e3b9a6139262b8ca3adaac2138bf7ba192910160405180910390a250505050565b6040516001600160a01b038316602482015260448101829052610e7890849063a9059cbb60e01b906064015b60408051601f198184030181529190526020810180516001600160e01b03166001600160e01b031990931692909217909152610f0b565b505050565b600080546001600160a01b038381166001600160a01b0319831681178455604051919092169283917f8be0079c531659141344cd1fd0a4f28419497f9722a3daafe3b4186f6b6457e09190a35050565b6040516001600160a01b0380851660248301528316604482015260648101829052610f059085906323b872dd60e01b90608401610e41565b50505050565b6000610f60826040518060400160405280602081526020017f5361666545524332303a206c6f772d6c6576656c2063616c6c206661696c6564815250856001600160a01b0316610fe09092919063ffffffff16565b9050805160001480610f81575080806020019051810190610f819190611306565b610e785760405162461bcd60e51b815260206004820152602a60248201527f5361666545524332303a204552433230206f7065726174696f6e20646964206e6044820152691bdd081cdd58d8d9595960b21b6064820152608401610356565b6060610fef8484600085610ff7565b949350505050565b6060824710156110585760405162461bcd60e51b815260206004820152602660248201527f416464726573733a20696e73756666696369656e742062616c616e636520666f6044820152651c8818d85b1b60d21b6064820152608401610356565b600080866001600160a01b03168587604051611074919061134c565b60006040518083038185875af1925050503d80600081146110b1576040519150601f19603f3d011682016040523d82523d6000602084013e6110b6565b606091505b50915091506110c7878383876110d2565b979650505050505050565b6060831561114157825160000361113a576001600160a01b0385163b61113a5760405162461bcd60e51b815260206004820152601d60248201527f416464726573733a2063616c6c20746f206e6f6e2d636f6e74726163740000006044820152606401610356565b5081610fef565b610fef83838151156111565781518083602001fd5b8060405162461bcd60e51b81526004016103569190611368565b60006020828403121561118257600080fd5b5035919050565b60008060006040848603121561119e57600080fd5b83359250602084013567ffffffffffffffff808211156111bd57600080fd5b818601915086601f8301126111d157600080fd5b8135818111156111e057600080fd5b8760208285010111156111f257600080fd5b6020830194508093505050509250925092565b60006020828403121561121757600080fd5b81356001600160a01b038116811461122e57600080fd5b9392505050565b634e487b7160e01b600052601160045260246000fd5b8082018082111561125e5761125e611235565b92915050565b808202811582820484141761125e5761125e611235565b60008261129857634e487b7160e01b600052601260045260246000fd5b500490565b6000602082840312156112af57600080fd5b5051919050565b8181038181111561125e5761125e611235565b84815283602082015260606040820152816060820152818360808301376000818301608090810191909152601f909201601f191601019392505050565b60006020828403121561131857600080fd5b8151801515811461122e57600080fd5b60005b8381101561134357818101518382015260200161132b565b50506000910152565b6000825161135e818460208701611328565b9190910192915050565b6020815260008251806020840152611387816040850160208701611328565b601f01601f1916919091016040019291505056fea26469706673582212209e914e006fbc0c08d49d53c0c210202b49c8d6bdb6e6e9b786571d2051315f3e64736f6c63430008130033",
  "linkReferences": {},
  "deployedLinkReferences": {}
}